{
  "_format": "hh-sol-artifact-1",
  "contractName": "WavePortal",
  "sourceName": "contracts/WavePortal.sol",
  "abi": [
    {
      "inputs": [],
      "stateMutability": "nonpayable",
      "type": "constructor"
    },
    {
      "anonymous": false,
      "inputs": [
        {
          "indexed": false,
          "internalType": "address",
          "name": "indexedFrom",
          "type": "address"
        },
        {
          "indexed": false,
          "internalType": "uint256",
          "name": "timeStamp",
          "type": "uint256"
        },
        {
          "indexed": false,
          "internalType": "string",
          "name": "message",
          "type": "string"
        }
      ],
      "name": "NewWave",
      "type": "event"
    },
    {
      "inputs": [],
      "name": "getAllWaves",
      "outputs": [
        {
          "components": [
            {
              "internalType": "address",
              "name": "waver",
              "type": "address"
            },
            {
              "internalType": "string",
              "name": "message",
              "type": "string"
            },
            {
              "internalType": "uint256",
              "name": "timeStamp",
              "type": "uint256"
            }
          ],
          "internalType": "struct WavePortal.Wave[]",
          "name": "",
          "type": "tuple[]"
        }
      ],
      "stateMutability": "view",
      "type": "function"
    },
    {
      "inputs": [],
      "name": "getTotalWaves",
      "outputs": [
        {
          "internalType": "uint256",
          "name": "",
          "type": "uint256"
        }
      ],
      "stateMutability": "view",
      "type": "function"
    },
    {
      "inputs": [],
      "name": "numWaves",
      "outputs": [
        {
          "internalType": "uint256",
          "name": "",
          "type": "uint256"
        }
      ],
      "stateMutability": "view",
      "type": "function"
    },
    {
      "inputs": [
        {
          "internalType": "address",
          "name": "",
          "type": "address"
        }
      ],
      "name": "nwaves",
      "outputs": [
        {
          "internalType": "uint256",
          "name": "",
          "type": "uint256"
        }
      ],
      "stateMutability": "view",
      "type": "function"
    },
    {
      "inputs": [
        {
          "internalType": "string",
          "name": "_message",
          "type": "string"
        }
      ],
      "name": "wave",
      "outputs": [],
      "stateMutability": "nonpayable",
      "type": "function"
    }
  ],
  "bytecode": "0x60806040523480156200001157600080fd5b506200005d6040518060400160405280601e81526020017f56616e696c6c61207761766520706f7274616c20636f6e74727563746f7200008152506200006360201b620004b51760201c565b620001f7565b62000103816040516024016200007a919062000170565b6040516020818303038152906040527f41304fac000000000000000000000000000000000000000000000000000000007bffffffffffffffffffffffffffffffffffffffffffffffffffffffff19166020820180517bffffffffffffffffffffffffffffffffffffffffffffffffffffffff83818316178352505050506200010660201b60201c565b50565b60008151905060006a636f6e736f6c652e6c6f679050602083016000808483855afa5050505050565b60006200013c8262000194565b6200014881856200019f565b93506200015a818560208601620001b0565b6200016581620001e6565b840191505092915050565b600060208201905081810360008301526200018c81846200012f565b905092915050565b600081519050919050565b600082825260208201905092915050565b60005b83811015620001d0578082015181840152602081019050620001b3565b83811115620001e0576000848401525b50505050565b6000601f19601f8301169050919050565b610d7580620002076000396000f3fe608060405234801561001057600080fd5b50600436106100575760003560e01c8063449d46c01461005c57806349175ada146100785780639a2cdc0814610096578063bd43a908146100b4578063ec6e9df1146100d2575b600080fd5b610076600480360381019061007191906107f8565b610102565b005b6100806102ba565b60405161008d9190610aa2565b60405180910390f35b61009e610301565b6040516100ab9190610aa2565b60405180910390f35b6100bc61034c565b6040516100c991906109fe565b60405180910390f35b6100ec60048036038101906100e791906107cf565b61049d565b6040516100f99190610aa2565b60405180910390f35b60016000808282546101149190610b84565b9250508190555061015a6040518060400160405280600d81526020017f25732068617320776176656421000000000000000000000000000000000000008152503361054e565b60018060003373ffffffffffffffffffffffffffffffffffffffff1673ffffffffffffffffffffffffffffffffffffffff16815260200190815260200160002060008282546101a99190610b84565b92505081905550600260405180606001604052803373ffffffffffffffffffffffffffffffffffffffff16815260200183815260200142815250908060018154018082558091505060019003906000526020600020906003020160009091909190915060008201518160000160006101000a81548173ffffffffffffffffffffffffffffffffffffffff021916908373ffffffffffffffffffffffffffffffffffffffff160217905550602082015181600101908051906020019061026f9291906106af565b506040820151816002015550507f5f7e16dc676677766a70e9c5628aa6c54ddb8b6e5188e2ae1e1f17f1ffbea7163342836040516102af939291906109c0565b60405180910390a150565b6000600160003373ffffffffffffffffffffffffffffffffffffffff1673ffffffffffffffffffffffffffffffffffffffff16815260200190815260200160002054905090565b60006103446040518060400160405280601681526020017f5765206861766520256420746f74616c207761766573000000000000000000008152506000546105ea565b600054905090565b60606002805480602002602001604051908101604052809291908181526020016000905b8282101561049457838290600052602060002090600302016040518060600160405290816000820160009054906101000a900473ffffffffffffffffffffffffffffffffffffffff1673ffffffffffffffffffffffffffffffffffffffff1673ffffffffffffffffffffffffffffffffffffffff1681526020016001820180546103f990610c58565b80601f016020809104026020016040519081016040528092919081815260200182805461042590610c58565b80156104725780601f1061044757610100808354040283529160200191610472565b820191906000526020600020905b81548152906001019060200180831161045557829003601f168201915b5050505050815260200160028201548152505081526020019060010190610370565b50505050905090565b60016020528060005260406000206000915090505481565b61054b816040516024016104c99190610a20565b6040516020818303038152906040527f41304fac000000000000000000000000000000000000000000000000000000007bffffffffffffffffffffffffffffffffffffffffffffffffffffffff19166020820180517bffffffffffffffffffffffffffffffffffffffffffffffffffffffff8381831617835250505050610686565b50565b6105e68282604051602401610564929190610a42565b6040516020818303038152906040527f319af333000000000000000000000000000000000000000000000000000000007bffffffffffffffffffffffffffffffffffffffffffffffffffffffff19166020820180517bffffffffffffffffffffffffffffffffffffffffffffffffffffffff8381831617835250505050610686565b5050565b6106828282604051602401610600929190610a72565b6040516020818303038152906040527f9710a9d0000000000000000000000000000000000000000000000000000000007bffffffffffffffffffffffffffffffffffffffffffffffffffffffff19166020820180517bffffffffffffffffffffffffffffffffffffffffffffffffffffffff8381831617835250505050610686565b5050565b60008151905060006a636f6e736f6c652e6c6f679050602083016000808483855afa5050505050565b8280546106bb90610c58565b90600052602060002090601f0160209004810192826106dd5760008555610724565b82601f106106f657805160ff1916838001178555610724565b82800160010185558215610724579182015b82811115610723578251825591602001919060010190610708565b5b5090506107319190610735565b5090565b5b8082111561074e576000816000905550600101610736565b5090565b600061076561076084610aee565b610abd565b90508281526020810184848401111561077d57600080fd5b610788848285610c16565b509392505050565b60008135905061079f81610d28565b92915050565b600082601f8301126107b657600080fd5b81356107c6848260208601610752565b91505092915050565b6000602082840312156107e157600080fd5b60006107ef84828501610790565b91505092915050565b60006020828403121561080a57600080fd5b600082013567ffffffffffffffff81111561082457600080fd5b610830848285016107a5565b91505092915050565b60006108458383610952565b905092915050565b61085681610bda565b82525050565b61086581610bda565b82525050565b600061087682610b2e565b6108808185610b51565b93508360208202850161089285610b1e565b8060005b858110156108ce57848403895281516108af8582610839565b94506108ba83610b44565b925060208a01995050600181019050610896565b50829750879550505050505092915050565b60006108eb82610b39565b6108f58185610b62565b9350610905818560208601610c25565b61090e81610d17565b840191505092915050565b600061092482610b39565b61092e8185610b73565b935061093e818560208601610c25565b61094781610d17565b840191505092915050565b600060608301600083015161096a600086018261084d565b506020830151848203602086015261098282826108e0565b915050604083015161099760408601826109a2565b508091505092915050565b6109ab81610c0c565b82525050565b6109ba81610c0c565b82525050565b60006060820190506109d5600083018661085c565b6109e260208301856109b1565b81810360408301526109f48184610919565b9050949350505050565b60006020820190508181036000830152610a18818461086b565b905092915050565b60006020820190508181036000830152610a3a8184610919565b905092915050565b60006040820190508181036000830152610a5c8185610919565b9050610a6b602083018461085c565b9392505050565b60006040820190508181036000830152610a8c8185610919565b9050610a9b60208301846109b1565b9392505050565b6000602082019050610ab760008301846109b1565b92915050565b6000604051905081810181811067ffffffffffffffff82111715610ae457610ae3610ce8565b5b8060405250919050565b600067ffffffffffffffff821115610b0957610b08610ce8565b5b601f19601f8301169050602081019050919050565b6000819050602082019050919050565b600081519050919050565b600081519050919050565b6000602082019050919050565b600082825260208201905092915050565b600082825260208201905092915050565b600082825260208201905092915050565b6000610b8f82610c0c565b9150610b9a83610c0c565b9250827fffffffffffffffffffffffffffffffffffffffffffffffffffffffffffffffff03821115610bcf57610bce610c8a565b5b828201905092915050565b6000610be582610bec565b9050919050565b600073ffffffffffffffffffffffffffffffffffffffff82169050919050565b6000819050919050565b82818337600083830152505050565b60005b83811015610c43578082015181840152602081019050610c28565b83811115610c52576000848401525b50505050565b60006002820490506001821680610c7057607f821691505b60208210811415610c8457610c83610cb9565b5b50919050565b7f4e487b7100000000000000000000000000000000000000000000000000000000600052601160045260246000fd5b7f4e487b7100000000000000000000000000000000000000000000000000000000600052602260045260246000fd5b7f4e487b7100000000000000000000000000000000000000000000000000000000600052604160045260246000fd5b6000601f19601f8301169050919050565b610d3181610bda565b8114610d3c57600080fd5b5056fea2646970667358221220baf0ec84f9c984ddd6bfd0f4fdb5351eab20a66578e975266c22983691445c0364736f6c63430008000033",
  "linkReferences": {},
  "deployedLinkReferences": {}
}